:100000000C942A000C943F000C943F000C943F0089
:100010000C943F000C943F000C943F000C943F0064
:100020000C943F000C943F000C943F000C943F0054
:100030000C943F000C943F000C94C0000C943F00C3
:100040000C943F000C943F000C943F000C943F0034
:100050000C943F0011241FBECFE5D4E0DEBFCDBF1E
:1000600010E0A0E6B0E0EEE7F3E002C005900D92EC
:10007000AA3AB107D9F70E9418010C94BD010C945B
:1000800000009FEF91BB82BB85B3897F85BB85B3A1
:10009000856085BB000000000000000085B38A7FFA
:1000A00085BB11BA089511BA85B3866085BB00007F
:1000B000000080B395B3997F95BB08950E945300CB
:1000C00087FDFCCF08959FEF91BB82BB85B3887FEE
:1000D00085BBAA9A0000000000000000AA9811BA8F
:1000E000089584B3876084BB15BA8FEF9FEF0197A3
:1000F000F1F780E30E9463008FEF9FEF0197F1F724
:1001000080E30E9463008FEF9FEF0197F1F780E398
:100110000E9463008FEF9FEF0197F1F788E30E9441
:1001200063000E945E008FE00E9463000E945E00F8
:1001300081E00E9463000E945E0086E00C946300F0
:100140000F931F93CF93DF93EC018E018881882357
:1001500041F00E945E002196F80180810E944100DA
:10016000F4CFDF91CF911F910F9108958158E62F21
:10017000F0E0E15AFF4F9081890F0C9463000895DD
:100180001F920F920FB60F9211242F933F934F930C
:100190005F936F937F938F939F93AF93BF93EF93EF
:1001A000FF93CF93DF9300D000D0CDB7DEB72FEF12
:1001B00081EE94E0215080409040E1F700C00000C3
:1001C00085B14AE050E0BE016F5F7F4F90E00E9432
:1001D0007D0162E081E00E94B6008FE990E00E941C
:1001E000A00062E081E00E94B600CE0101960E946C
:1001F000A00062E081E00E94B60085EA90E00E94E3
:10020000A0000F900F900F900F90DF91CF91FF9172
:10021000EF91BF91AF919F918F917F916F915F917E
:100220004F913F912F910F900FBE0F901F901895F7
:100230000E9471000E945E0084E690E00E94A0008F
:100240000E945E0080EC0E9463000E945E008FE6C8
:1002500090E00E94A0002FEF83ED90E321508040BA
:100260009040E1F700C0000081E00E9463000E941E
:100270005E0085E790E00E94A0000E945E0080EC96
:100280000E9463000E945E00C1E0D0E085E890E03B
:100290000E94A0002FEF81EE94E02150804090401A
:1002A000E1F700C00000C031D105A9F481E00E944F
:1002B000630087E890E00E94A0002FEF83ED90E3B9
:1002C000215080409040E1F700C0000081E00E9492
:1002D00063000E945E002196C131D105B9F686E91E
:1002E00090E00E94A0000E945E00329A3D9A3E9AE1
:1002F000339A379A7894369AFECF4532510520F4D6
:10030000423010F00C948801FB011082CB0108955B
:10031000BB274A3031F4992322F4BDE290958195B0
:100320009F4F0C949401BB27FB015527AA27880FE8
:10033000991FAA1FA41710F0A41B83955051B9F759
:10034000A05DAA3308F0A95DA193009779F7B111D8
:10035000B1931192CB010C94AD01DC01FC01672F2C
:1003600071917723E1F7329704C07C916D9370838C
:0E0370006291AE17BF07C8F30895F894FFCF4F
:10037E000040145443726561746564206279004DC7
:10038E00616769630043617267616E646F205365D4
:10039E006E736F72002D00436172676120436F6D43
:1003AE00706C657461004C6579656E646F3A0041DE
:0A03BE0044434820002020200000E6
:00000001FF
