:100000000C942A000C943F000C943F000C943F0089
:100010000C943F000C943F000C943F000C943F0064
:100020000C943F000C943F000C943F000C943F0054
:100030000C943F000C943F000C943F000C943F0044
:100040000C943F000C943F000C943F000C943F0034
:100050000C943F0011241FBECFE5D4E0DEBFCDBF1E
:1000600010E0A0E6B0E0E2EBF7E002C005900D92F0
:10007000AE3CB107D9F70E94B7000C94D7030C949B
:1000800000009FEF91BB82BB85B3897F85BB85B3A1
:10009000856085BB000000000000000085B38A7FFA
:1000A00085BB11BA089511BA85B3866085BB00007F
:1000B000000080B395B3997F95BB08950E945300CB
:1000C00087FDFCCF08959FEF91BB82BB85B3887FEE
:1000D00085BBAA9A0000000000000000AA9811BA8F
:1000E000089584B3876084BB15BA8FEF9FEF0197A3
:1000F000F1F780E30E9463008FEF9FEF0197F1F724
:1001000080E30E9463008FEF9FEF0197F1F780E398
:100110000E9463008FEF9FEF0197F1F788E30E9441
:1001200063000E945E008FE00E9463000E945E00F8
:1001300081E00E9463000E945E0086E00C946300F0
:100140000F931F93CF93DF93EC018E018881882357
:1001500041F00E945E002196F80180810E944100DA
:10016000F4CFDF91CF911F910F91089508950E94D0
:1001700071000E945E0080E690E00E94A0000E9454
:100180005E0080EC0E9463000E945E008BE690E0BF
:100190000E94A0002FEF83ED90E32150804090401B
:1001A000E1F700C0000081E00E9463000E945E0051
:1001B00081E790E00E94A0000E945E0080EF8ABB71
:1001C000C1E0D0E010E800E480E2F82E90E1E92EF2
:1001D0001BBB25E32A95F1F7000089B390E088382E
:1001E000910539F489B390E088389105D9F3C4E0DA
:1001F000D0E08438910539F489B390E084389105D2
:10020000D9F3C3E0D0E08238910539F489B390E0A6
:1002100082389105D9F3C2E0D0E08138910529F404
:1002200089B38138E9F3C1E0D0E00BBB85E38A955F
:10023000F1F7000089B390E08834910589F5C33067
:10024000D105D1F0C430D10509F1C230D10551F04A
:100250008AE790E00E94A00089B390E0883491057D
:10026000D9F31EC08CE790E00E94A00089B390E013
:1002700088349105D9F32AC08EE790E00E94A0004F
:1002800089B390E088349105D9F32DC088E790E0D8
:100290000E94A00089B390E088349105D9F330C062
:1002A00084349105D1F5C330D10501F1C430D105B5
:1002B00051F1C230D10569F080E890E00E94A000C1
:1002C00089B390E084349105D9F327C08434910533
:1002D000D1F582E890E00E94A00089B390E08434D8
:1002E0009105D9F330C084349105D1F584E890E0CC
:1002F0000E94A00089B390E084349105D9F330C006
:1003000084349105D1F586E890E00E94A00089B37D
:1003100090E084349105D9F330C082349105D1F551
:10032000C330D10501F1C430D10551F1C230D1053E
:1003300069F088E890E00E94A00089B390E08234E0
:100340009105D9F327C08234910521F58AE890E020
:100350000E94A00089B390E082349105D9F33AC09D
:1003600082349105B9F48CE890E00E94A00089B332
:1003700090E082349105D9F338C08234910551F46C
:1003800081E990E00E94A00089B390E08234910559
:10039000D9F336C08134910561F0FBBA95E39A95A3
:1003A000F1F7000089B390E08832910509F064C04C
:1003B00032C0C330D105E1F0C430D10521F1C230E3
:1003C000D10559F083E990E00E94A00089B38134FF
:1003D000E9F3E3CF8134910501F785E990E00E94CC
:1003E000A00089B38134E9F3D8CF81349105A9F60F
:1003F00087E990E00E94A00089B38134E9F3CDCF72
:100400008134910551F689E990E00E94A00089B3FA
:100410008134E9F3C2CFC330D105D1F0C430D10566
:1004200009F1C230D10551F08BE990E00E94A000A3
:1004300089B390E088329105D9F31EC088E790E037
:100440000E94A00089B390E088329105D9F32AC0B8
:1004500088E790E00E94A00089B390E0883291057F
:10046000D9F32DC088E790E00E94A00089B390E006
:1004700088329105D9F330C084329105D1F5C3306B
:10048000D10501F1C430D10551F1C230D10569F077
:100490008DE990E00E94A00089B390E0843291053C
:1004A000D9F327C084329105D1F58FE990E00E94FD
:1004B000A00089B390E084329105D9F330C0843232
:1004C0009105D1F581EA90E00E94A00089B390E007
:1004D00084329105D9F330C084329105D1F583EA95
:1004E00090E00E94A00089B390E084329105D9F396
:1004F00030C082329105D1F5C330D10501F1C4304D
:10050000D10551F1C230D10569F085EA90E00E9431
:10051000A00089B390E082329105D9F327C08232DE
:10052000910521F58FE890E00E94A00089B390E04A
:1005300082329105D9F339C082329105B9F487EA44
:1005400090E00E94A00089B390E082329105D9F337
:1005500036C08232910551F489EA90E00E94A000F1
:1005600089B390E082329105D9F333C0819761F06D
:10057000EBBA25E32A95F1F7000089B390E08831C2
:10058000910509F05EC02FC0C330D105D1F0C43051
:10059000D10509F1C230D10551F08BEA90E00E94FB
:1005A000A00089B38132E9F3E3CF819709F78DEA9F
:1005B00090E00E94A00089B38132E9F3D9CF8197FE
:1005C000B9F68FEA90E00E94A00089B38132E9F386
:1005D000CFCF819769F681EB90E00E94A00089B3AC
:1005E0008132E9F3C5CFC330D105C9F0C430D1059C
:1005F000F9F0C230D10551F083EB90E00E94A000E9
:1006000089B390E088319105D9F31BC081E00E9445
:10061000630089B390E088319105D9F328C081E067
:100620000E94630089B390E088319105D9F32CC012
:1006300081E00E94630089B390E088319105D9F38D
:1006400030C084319105D1F5C330D10501F1C430FA
:10065000D10551F1C230D10569F085EB90E00E94DF
:10066000A00089B390E084319105D9F327C084318B
:100670009105D1F587EB90E00E94A00089B390E04E
:1006800084319105D9F330C084319105D1F589EBDE
:1006900090E00E94A00089B390E084319105D9F3E5
:1006A00030C084319105D1F58BEB90E00E94A00021
:1006B00089B390E084319105D9F330C0823191053E
:1006C000D1F5C330D10501F1C430D10551F1C230AB
:1006D000D10569F08DEB90E00E94A00089B390E015
:1006E00082319105D9F327C08231910521F58FEB35
:1006F00090E00E94A00089B390E082319105D9F387
:100700002FC082319105B9F481EC90E00E94A000E5
:1007100089B390E082319105D9F32FC082319105E0
:1007200051F483EC90E00E94A00089B390E0823104
:100730009105D9F32FC0419709F04ACDC330D105B7
:10074000F9F0C430D10549F1229769F085EC90E0C9
:100750000E94A00089B38131E9F3C1E0D0E038CD37
:10076000419709F035CD87EC90E00E94A00089B355
:100770008131E9F3C2E0D0E02BCD419709F028CDDB
:1007800089EC90E00E94A00089B38131E9F3C3E0D5
:10079000D0E01ECD419709F01BCD8BEC90E00E947C
:1007A000A00089B38131E9F3C4E0D0E011CDF89421
:0207B000FFCF79
:1007B20043726561746564206279004D61676963A3
:1007C200004469676974653A2000230040002400F0
:1007D2003900490051005A0036004600454E4E4548
:1007E200005700330043004C0054003000380048EA
:1007F200005000590035004E005600320042004BB6
:100802000053002A00370047004F005800340044CC
:0E081200004D005500310041004A0052000028
:00000001FF
