:100000000C946B000C9480000C9480000C94800085
:100010000C9480000C9480000C9480000C94800060
:100020000C9480000C9480000C9480000C94800050
:100030000C9480000C9480000C9474010C9480004B
:100040000C9480000C9480000C9480000C94800030
:100050000C94800007634236B79BD8A71A396856BC
:1000600018AEBAAB558C1D3CB7CC5763BD6DEDFDDA
:10007000753EF6177231BF000000803F0800000097
:10008000BE922449123EABAAAA2ABECDCCCC4C3E8D
:1000900000000080BEABAAAAAA3E00000000BF007C
:1000A0000000803F0000000000084178D3BB438778
:1000B000D1133D190E3CC3BD4282AD2B3E68EC828C
:1000C00076BED98FE1A93E4C80EFFFBE01C4FF7F11
:1000D0003F000000000011241FBECFE5D4E0DEBFCA
:1000E000CDBF10E0A0E6B0E0EEE8FCE002C0059075
:1000F0000D92A03BB107D9F70E942F020C94450640
:100100000C9400009FEF91BB82BB85B3897F85BBB8
:1001100085B3856085BB000000000000000085B34A
:100120008A7F85BB11BA089511BA85B3866085BBF5
:100130000000000080B395B3997F95BB08950E949D
:10014000940087FDFCCF08959FEF91BB82BB85B3E0
:10015000887F85BBAA9A0000000000000000AA98D2
:1001600011BA089584B3876084BB15BA8FEF9FEFEF
:100170000197F1F780E30E94A4008FEF9FEF0197B2
:10018000F1F780E30E94A4008FEF9FEF0197F1F752
:1001900080E30E94A4008FEF9FEF0197F1F788E3BF
:1001A0000E94A4000E949F008FE00E94A4000E9471
:1001B0009F0081E00E94A4000E949F0086E00C94B2
:1001C000A4000F931F93CF93DF93EC018E018881DE
:1001D000882341F00E949F002196F80180810E94AF
:1001E0008200F4CFDF91CF911F910F910895815834
:1001F000E62FF0E0E15AFF4F9081890F0C94A400A4
:1002000008958F929F92AF92BF92CF92DF92EF921A
:10021000FF920F931F93CF93DF93CDB7DEB72C9749
:100220000FB6F894DEBF0FBECDBF4B015C018A0153
:1002300081E00E94A400C501B4010E9461036B012A
:100240007C01882777FD8095982F0E9494039B015D
:10025000AC01C501B4010E9494024B015C014AE06B
:10026000BE01695F7F4FC6010E941006CE0107964E
:100270000E94E1008EE990E00E94E100B801882729
:1002800077FD8095982F0E9494039B01AC0160E05C
:1002900070E080E291E40E9483049B01AC01C501FF
:1002A000B4010E9420040E946103DC01CB014AE0FA
:1002B000BE016F5F7F4F0E941006CE0101960E9423
:1002C000E1002C960FB6F894DEBF0FBECDBFDF91D4
:1002D000CF911F910F91FF90EF90DF90CF90BF9043
:1002E000AF909F908F9008951F920F920FB60F922C
:1002F0001124EF92FF920F931F932F933F934F93ED
:100300005F936F937F938F939F93AF93BF93EF937D
:10031000FF93CF93DF93CDB7DEB72A97DEBFCDBF74
:100320002FEF81EE94E0215080409040E1F700C033
:10033000000085B14AE0BE016F5F7F4F90E00E94F0
:10034000100665B170E080E090E00E9494032DE318
:100350003AE04FE850E40E94200420E030E040E220
:1003600051E40E94200420E030E04FE753E40E9473
:10037000F9020E9461030AE010E0CB01B8010E947B
:10038000E8057B014AE0BE01685F7F4F0E941006CE
:10039000C701B8010E94E8054AE0BE016B5F7F4FCC
:1003A0000E94100662E081E00E94F700CE010596EF
:1003B0000E94E10062E081E00E94F7008EE990E097
:1003C0000E94E10062E081E00E94F700CE01089601
:1003D0000E94E10062E081E00E94F7008DEA90E077
:1003E0000E94E10062E081E00E94F70080EA90E074
:1003F0000E94E10062E081E00E94F70085EA90E05F
:100400000E94E10062E081E00E94F700CE010196C7
:100410000E94E10062E081E00E94F7008BEA90E038
:100420000E94E1002A960FB6F894DEBF0FBECDBF42
:10043000DF91CF91FF91EF91BF91AF919F918F91FC
:100440007F916F915F914F913F912F911F910F91EC
:10045000FF90EF900F900FBE0F901F9018950E9485
:10046000B2000E949F0084E690E00E94E1000E949A
:100470009F0080EC0E94A4000E949F008FE690E005
:100480000E94E1002FEF83ED90E3215080409040E7
:10049000E1F700C0000081E00E94A4000E949F00DC
:1004A00085E790E00E94E1000E949F0080EC0E949E
:1004B000A4000E949F00C1E0D0E084E890E00E9488
:1004C000E1002FEF80E792E0215080409040E1F77B
:1004D00000C00000C031D105A9F481E00E94A40051
:1004E00086E890E00E94E1002FEF83ED90E3215039
:1004F00080409040E1F700C0000081E00E94A4002D
:100500000E949F002196C131D105B9F685E990E09E
:100510000E94E1000E949F00329A3D9A3E9A339ACF
:10052000379A7894369AFECF5058BB27AA270ED018
:100530004DC13ED130F043D120F031F49F3F11F452
:100540001EF433C10EF4E095E7FB29C1E92F4FD12A
:1005500080F3BA17620773078407950718F071F4E0
:100560009EF567C10EF4E0950B2EBA2FA02D0B015E
:10057000B90190010C01CA01A0011124FF27591BE8
:1005800099F0593F50F4503E68F11A16F040A22FEE
:10059000232F342F4427585FF3CF4695379527955F
:1005A000A795F0405395C9F77EF41F16BA0B620B5E
:1005B000730B840BBAF09150A1F0FF0FBB1F661FA5
:1005C000771F881FC2F70EC0BA0F621F731F841FE8
:1005D00048F4879577956795B795F7959E3F08F00E
:1005E000B3CF9395880F08F09927EE0F97958795CD
:1005F00008950CD0EBC0E3D040F0DAD030F021F415
:100600005F3F19F0CCC0511115C1CFC0F0D098F3A5
:100610009923C9F35523B1F3951B550BBB27AA2783
:1006200062177307840738F09F5F5F4F220F331FF5
:10063000441FAA1FA9F333D00E2E3AF0E0E830D0C1
:1006400091505040E695001CCAF729D0FE2F27D0C4
:10065000660F771F881FBB1F261737074807AB0792
:10066000B0E809F0BB0B802DBF01FF2793585F4F07
:100670002AF09E3F510568F092C0DCC05F3FECF36A
:10068000983EDCF3869577956795B795F7959F5FCC
:10069000C9F7880F911D9695879597F90895E1E020
:1006A000660F771F881FBB1F621773078407BA077F
:1006B00020F0621B730B840BBA0BEE1F88F7E095DA
:1006C000089504D06894B111B5C0089598D088F009
:1006D0009F5790F0B92F9927B751A0F0D1F0660F2E
:1006E000771F881F991F1AF0BA95C9F712C0B13049
:1006F00081F09FD0B1E008959CC0672F782F8827A4
:10070000B85F39F0B93FCCF3869577956795B39587
:10071000D9F73EF490958095709561957F4F8F4FF6
:100720009F4F0895E89409C097FB3EF490958095FB
:10073000709561957F4F8F4F9F4F9923A9F0F92FA7
:1007400096E9BB279395F695879577956795B79525
:10075000F111F8CFFAF4BB0F11F460FF1BC06F5F0B
:100760007F4F8F4F9F4F16C0882311F096E911C01D
:10077000772321F09EE8872F762F05C0662371F03E
:1007800096E8862F70E060E02AF09A95660F771F52
:10079000881FDAF7880F9695879597F9089597F946
:1007A0009F6780E870E060E008959FEF80EC089517
:1007B00000240A9416161706180609060895002440
:1007C0000A9412161306140605060895092E0394BA
:1007D000000C11F4882352F0BB0F40F4BF2B11F42E
:1007E00060FF04C06F5F7F4F8F4F9F4F089557FD8D
:1007F0009058440F551F59F05F3F71F04795880F8F
:1008000097FB991F61F09F3F79F087950895121625
:1008100013061406551FF2CF4695F1DF08C01616D1
:1008200017061806991FF1CF869571056105089482
:100830000895E894BB2766277727CB0197F9089599
:100840000BD0C4CFB5DF28F0BADF18F0952309F03C
:10085000A6CFABCF1124EECFCADFA0F3959FD1F383
:10086000950F50E0551F629FF001729FBB27F00D5E
:10087000B11D639FAA27F00DB11DAA1F649F6627B3
:10088000B00DA11D661F829F2227B00DA11D621F02
:10089000739FB00DA11D621F839FA00D611D221FBC
:1008A000749F3327A00D611D231F849F600D211DA0
:1008B000822F762F6A2F11249F5750408AF0E1F043
:1008C00088234AF0EE0FFF1FBB1F661F771F881F8C
:1008D00091505040A9F79E3F510570F060CFAACFCC
:1008E0005F3FECF3983EDCF3869577956795B79577
:1008F000F795E7959F5FC1F7FE2B880F911D9695A1
:10090000879597F90895FA01EE0FFF1F309621059C
:10091000310599F16115710561F48038BFE39B07DA
:1009200049F168949038810561F08038BFEF9B07EA
:1009300041F0992342F5FF3FE1053105210511F111
:10094000E8940894E795D901AA2329F4AB2FBE2F88
:10095000F85FD0F310C0FF5F70F4A695E0F7F739A9
:1009600050F019F0FF3A38F49F779F930CD00F9016
:1009700007FC905808953EF018CF60E070E080E8E2
:100980009FE308954FE79F775F934F933F932F9394
:100990009ED02F913F914F915F9152DF05C019F486
:1009A0000EF0FDCE46CF01CF2ADFC8F39638C0F750
:1009B00007F80F92E8942BE33AEA48EB5FE74EDF43
:1009C0000F920F920F924DB75EB70F92C0D0E4E531
:1009D000F0E016D04F915F91EF91FF91E595EE1FFA
:1009E000FF1F49F0FE57E0684427EE0F441FFA95B9
:1009F000E1F74195550B32D00F9007FE26C00895C0
:100A0000DF93CF931F930F93FF92EF92DF927B01BF
:100A10008C01689405C0DA2EEF011EDFFE01E89418
:100A2000A5912591359145915591AEF3EF018EDD5C
:100A3000FE019701A801DA9479F7DF90EF90FF901B
:100A40000F911F91CF91DF9108959B01AC0160E060
:100A500070E080E89FE3CDCDA2CEACC0D0DEE8F35D
:100A60009923D9F3940F511DBBF39150504094F04A
:100A700059F0882332F0660F771F881F915050403D
:100A8000C1F79E3F510544F7880F911D96958795B4
:100A900097F908955F3FACF0983E9CF0BB27869590
:100AA00077956795B79508F4B1609395C1F7BB0F3B
:100AB00058F711F460FFE8CF6F5F7F4F8F4F9F4F64
:100AC000E3CFB8CE0EF076C070CE689468CE97DED5
:100AD000C8F39923D1F3C6F3DF93CF931F930F93FA
:100AE000FF92C92FDD2788232AF02197660F771FF1
:100AF000881FDAF720E030E040E85FEB9FE38839B9
:100B000020F0803E30F021968F770FDDECE7F0E0AB
:100B100003C00BDDE9EAF0E073DF8B01BE01EC01FD
:100B2000FB2E6F5771097595771F880B990BFCDDAC
:100B300028E132E741E35FE38FDEAF2D9801AE019C
:100B4000FF900F911F91CF91DF9100DD3FCEFA0111
:100B5000DC01AA0FBB1F9B01AC01BF5728F4222761
:100B60003327442750781FC0B75188F4AB2F002497
:100B7000469537952795011CA395D2F3002069F07F
:100B8000220F331F441FB395DAF30DD0CDCC613063
:100B90007105A0E88A07B94630F49B01AC016627CD
:100BA000772788279078309621F0208331834283FD
:100BB000538308959F3F31F0915020F487957795A6
:100BC0006795B795880F911D9695879597F9089524
:100BD00097FB072E16F4009407D077FD09D00E94EA
:100BE000FC0507FC05D03EF4909581959F4F089534
:100BF000709561957F4F0895AA1BBB1B51E107C0FB
:100C0000AA1FBB1FA617B70710F0A61BB70B881F9C
:100C1000991F5A95A9F780959095BC01CD0108952B
:100C2000BB274A3031F4992322F4BDE29095819597
:100C30009F4F0C941C06BB27FB015527AA27880F42
:100C4000991FAA1FA41710F0A41B83955051B9F740
:100C5000A05DAA3308F0A95DA193009779F7B111BF
:100C6000B1931192CB010C943506DC01FC01672F86
:100C700071917723E1F7329704C07C916D93708373
:0E0C80006291AE17BF07C8F30895F894FFCF36
:100C8E000040145443726561746564206279004DAE
:100C9E00616769630043617267616E646F204461CE
:100CAE00746F73002D00436172676120436F6D7026
:100CBE006C657461004C6579656E646F3A002E0048
:100CCE005664632000414443482000202020000049
:00000001FF
