:100000000C942A000C9434000C9434000C943400AA
:100010000C9434000C9434000C9434000C94340090
:100020000C9434000C9434000C9434000C94340080
:100030000C9434000C9434000C9434000C94340070
:100040000C9434000C9434000C9434000C94340060
:100050000C94340011241FBECFE5D4E0DEBFCDBF29
:100060000E9443000C9455000C940000089510BCAD
:1000700087E689B9539A80B5866880BD08955D9BEF
:10008000FECF8CB908950E94370085E00E943F00A2
:100090002FEF83E294EF215080409040E1F700C0C1
:0E00A000000086EE0E943F00F0CFF894FFCFE4
:00000001FF
