:100000000C942A000C943F000C943F000C943F0089
:100010000C943F000C943F000C943F000C943F0064
:100020000C943F000C943F000C943F000C943F0054
:100030000C943F000C943F000C943F000C943F0044
:100040000C943F000C943F000C943F000C943F0034
:100050000C943F0011241FBECFE5D4E0DEBFCDBF1E
:1000600010E0A0E6B0E0E0E8F2E002C005900D92FA
:10007000A639B107D9F70E94CD000C943E010C942B
:1000800000009FEF9ABB8BBB85B3897F85BB85B38F
:10009000856085BB000000000000000085B38A7FFA
:1000A00085BB1ABA08951ABA85B3866085BB00006D
:1000B000000089B395B3997F95BB08950E945300C2
:1000C00087FDFCCF08959FEF9ABB8BBB85B3887FDC
:1000D00085BBAA9A0000000000000000AA981ABA86
:1000E000089584B3876084BB15BA8FEF9FEF0197A3
:1000F000F1F780E30E9463008FEF9FEF0197F1F724
:1001000080E30E9463008FEF9FEF0197F1F780E398
:100110000E9463008FEF9FEF0197F1F788E30E9441
:1001200063000E945E008FE00E9463000E945E00F8
:1001300081E00E9463000E945E0086E00C946300F0
:100140000F931F93CF93DF93EC018E018881882357
:1001500041F00E945E002196F80180810E944100DA
:10016000F4CFDF91CF911F910F9108958158E62F21
:10017000F0E0E15AFF4F9081890F0C9463000895DD
:1001800010BC87E689B98AB188618AB980B586686A
:1001900080BD08958BB18CB108950E94C0000E946B
:1001A00071000E945E0084E690E00E94A0000E9420
:1001B0005E0080EC0E9463000E945E008FE690E08B
:1001C0000E94A0002FEF83ED90E3215080409040EB
:1001D000E1F700C0000081E00E9463000E945E0021
:1001E00085E790E00E94A0000E945E0080EC0E94E3
:1001F00063000E945E00C1E0D0E085E890E00E94CC
:10020000A0002FEF81EE94E0215080409040E1F774
:1002100000C00000C031D105A9F481E00E94630054
:1002200087E890E00E94A0002FEF83ED90E321503B
:1002300080409040E1F700C0000081E00E94630030
:100240000E945E002196C131D105B9F60E945E0080
:100250008BB1CCB12FEF81EE94E0215080409040E3
:10026000E1F700C0000062E081E00E94B6000E9459
:100270005E008C2F90E00E94A000E8CFF894FFCFA2
:100280000040145443726561746564206279004DC6
:10029000616769630043617267616E646F205365D3
:1002A0006E736F72002D00436172676120436F6D42
:0602B000706C6574610032
:00000001FF
