:100000000C942A000C9447000C9447000C94470071
:100010000C9447000C9447000C9447000C94470044
:100020000C9447000C9447000C9447000C94470034
:100030000C9447000C9447000C94C8000C944700A3
:100040000C9447000C9447000C9447000C94470014
:100050000C94470011241FBECFE5D4E0DEBFCDBF16
:1000600010E0A0E6B0E0E6E6F2E002C005900D92F6
:10007000A637B107D9F720E0A6E7B0E001C01D928E
:10008000A737B207E1F70E940E010C9431010C94DE
:1000900000009FEF91BB82BB85B3897F85BB85B391
:1000A000856085BB000000000000000085B38A7FEA
:1000B00085BB11BA089511BA85B3866085BB00006F
:1000C000000080B395B3997F95BB08950E945B00B3
:1000D00087FDFCCF08959FEF91BB82BB85B3887FDE
:1000E00085BBAA9A0000000000000000AA9811BA7F
:1000F000089584B3876084BB15BA8FEF9FEF019793
:10010000F1F780E30E946B008FEF9FEF0197F1F70B
:1001100080E30E946B008FEF9FEF0197F1F780E380
:100120000E946B008FEF9FEF0197F1F788E30E9429
:100130006B000E9466008FE00E946B000E946600C8
:1001400081E00E946B000E94660086E00C946B00C8
:100150000F931F93CF93DF93EC018E018881882347
:1001600041F00E9466002196F80180810E944900BA
:10017000F4CFDF91CF911F910F9108958158E62F11
:10018000F0E0E15AFF4F9081890F0C946B000895C5
:100190001F920F920FB60F9211242F933F934F93FC
:1001A0005F936F937F938F939F93AF93BF93EF93DF
:1001B000FF9385B18F3F19F48AE690E002C088E68C
:1001C00090E08093760062E081E00E94BE008CE6C1
:1001D00090E00E94A80062E081E00E94BE00809151
:1001E000760090E00E94A80062E081E00E94BE00DC
:1001F00082E790E00E94A800369AFF91EF91BF91AC
:10020000AF919F918F917F916F915F914F913F91AE
:100210002F910F900FBE0F901F90189587B387BB3B
:1002200084B384BB0E9479000E94660084E690E05B
:100230000E94A800329A3D9A3E9A339A379A369A8B
:1002400078948091760090E08A56904009F4AF9AB5
:100250008091760090E08856904099F785B385BBF1
:06026000F0CFF894FFCF7F
:1002660000401454434E593730003100414443484E
:0602760020002020200002
:00000001FF
